:1000000000308A0037280000253084008313000860
:10001000031917280230F800F701F70B0D28F80B29
:100020000C289730F700F70B1328800B0A280800DC
:100030008E30F7002608F8002508F900FA01F808C4
:10004000031D2C287908F800F9010830F702F80898
:10005000031D2C28F70134280310F81B3328F90D51
:10006000F80DF7032C28F8138A110A1270280308D8
:100070001F398300FF30A40083161F149F141F151F
:100080009F1107309C0083131F109F101F159F1195
:100090001F1783121F179F1383169F1383121F149A
:1000A0002411240883168700831207110C3097004F
:1000B0000030F80006389200FF30831692000030BE
:1000C000F80083121F08C73978049F000230A5008A
:1000D00004201F151F196A281E08A601A50018284C
:1000E0007A08A3007908A2007808A1007708A00088
:1000F0000230A50004202108F9002008F800F90CBE
:10010000F80CF90CF80CF90C78089500F90C790C3E
:100110003039F7001708CF39770497000230A5006F
:08012000042083165F28630030
:02400E00723FFF
:00000001FF
;PIC16F877A
;CRC=85DB  CREATED="22-Jul.-25 12:37"
