:1000000001308A00B5290000D232F33A6C3A6132ED
:100010006F1D20000C002E3084008313000803198C
:100020001F280130F800F701F70B1428F80B1328EC
:100030004A30F700F70B1A281D28800B11280800FA
:10004000340EF039F7000F300805770488000000FF
:1000500008142A28081008000808F700080E0F39AD
:10006000F800080083160810881008118312881001
:100070000F3083160805F038880083120815000039
:10008000081400002C207808B400081000000814A0
:1000900000002C207808B30008100F3083160805E4
:1000A00088008312340EF700F030F7057708330428
:1000B000F8007808B300B31B3828311C88103118B9
:1000C00088140000081100000810320EB3000F3031
:1000D000B3053308B400202032080F39B300B40050
:1000E000202008002830AA000C30AB000130AC0002
:1000F0000630AD000810881008110F30831608056F
:1001000088000810881008110F308312AE000B20F1
:100110000130A9002908033C031C96280330B400D1
:1001200020200530AE000B20A90A8A280230B40036
:1001300020200530AE000B20A9012908033C031C38
:10014000AD282A302907840083130008AE00B101CE
:100150002E08B2003220A90A9D288A110A12C82945
:100160002C08F8012B020318B8282B08F700C42824
:10017000F7010830AD00AB0DF70D2C08770203181E
:10018000F700F80DAD0BBB2808002008840083138E
:10019000211883172B088000840A8001A00A031904
:1001A000A10A080078082908AB006430AC00B02030
:1001B0007708A90078083030031DE528AA1CEC2830
:1001C000AA19EC282A1A2030E828AA112A122A147F
:1001D000F8077808AB00C5202908AB000A30AC004E
:1001E000B0207708A90078083030031DFD28AA192F
:1001F00001292A1C01292A1A2030F8077808AB00A7
:10020000C5203030A9072908AB00C5208A110A1281
:10021000D6292E0B0C290F294030AF001029AF0131
:1002200001302D02AF072F088038B000B10130082F
:10023000B200322008002C08073A031929290B3A8A
:1002400003192E29063A03193629023A03193C29C3
:1002500041290130AD00AE0009214629B10101302C
:10026000B20032200230AE000B2046290130AD0032
:100270000230AE0009214629B1011030B20032200F
:1002800046290130B1002C08B200322008000B08CA
:10029000A9008B13831603178C170C1400000000A1
:1002A00083120313A91B8B1703170C087F3903193B
:1002B0009B290313A90003170D080313AA000317B2
:1002C0000F080313AB002908AC001B212A080317F1
:1002D0008D0003132B0803178F0003130B08AC00CA
:1002E0008B13831603178C170C1400000000831265
:1002F0000313AC1B8B1703170C0D0E0D7F3903195D
:100300009B290313A90003170D080313AA00031761
:100310000F080313AB002908AC001B212A080317A0
:100320008D0003132B0803178F008D0A03198F0A02
:100330000313472903170313080080080319B22980
:10034000AA010408A9002A10831B2A140008AC0083
:100350001B212908840083132A188317840A031990
:10036000850A9D298A110A12EA2903081F39830088
:10037000A101A00183161F149F141F159F110730A0
:100380009C0083130030880001308600831272289D
:10039000FF308316860083120608A800A1012230D0
:1003A000A0002808A9001B30AA00D2280130AD0007
:1003B000AE000921043003178D0000308F000313B5
:1003C00047210130AD000230AE0009212230840007
:1003D00083139D290430A900FA30AE000B20A90B2D
:1003E000EC290A3003178D0000308F0003134721DA
:0403F000C8296300B5
:02400E00723FFF
:00000001FF
;PIC16F877A
;CRC=7D00  CREATED="22-Jul.-25 14:41"
