:1000000001308A0059290000A022CC22432AD2279D
:1000100041264C00D42AD427A022CC22432AD22421
:1000200043000C004526C5215429CF204C26000151
:100030000C004526C5215429CF204C2600010C0078
:100040002930840083130008031934280130F80094
:10005000F701F70B2928F80B28284A30F700F70B8F
:100060002F283228800B262808002F0EF039F700A1
:100070000F30080577048800000008143F28081096
:1000800008000808F700080E0F39F800080083166A
:10009000081088100811831288100F308316080585
:1000A000F038880083120815000008140000412071
:1000B0007808AF00081000000814000041207808FC
:1000C000AE0008100F3083160805880083122F0E2B
:1000D000F700F030F70577082E04F8007808AE0036
:1000E000AE1B4D282C1C88102C18881400000811F9
:1000F000000008102D0EAE000F30AE052E08AF0028
:1001000035202D080F39AE00AF003520080028300B
:10011000A5000C30A6000130A7000630A80008108A
:10012000881008110F308316080588000810881001
:1001300008110F308312A90020200130A4002408E8
:10014000033C031CAB280330AF0035200530A90069
:100150002020A40A9F280230AF0035200530A900D6
:100160002020A4012408033C031CC22825302407B6
:10017000840083130008A900AC012908AD004720C2
:10018000A40AB2288A110A126A29290BC828CB2886
:100190004030AA00CC28AA0101302802AA072A0868
:1001A0008038AB00AC012B08AD00472008002708C1
:1001B000073A0319E5280B3A0319EA28063A031906
:1001C000F228023A0319F828FD280130A800A900F6
:1001D000C5200229AC010130AD0047200230A90042
:1001E000202002290130A8000230A900C5200229E0
:1001F000AC011030AD00472002290130AC002708C7
:10020000AD00472008000B08A4008B1383160317CA
:100210008C170C140000000083120313A41B8B170F
:1002200003170C087F39031957290313A400031778
:100230000D080313A50003170F080313A6002408D5
:10024000A700D720250803178D00031326080317DE
:100250008F0003130B08A7008B13831603178C174B
:100260000C140000000083120313A71B8B17031745
:100270000C0D0E0D7F39031957290313A400031722
:100280000D080313A50003170F080313A600240885
:10029000A700D720250803178D000313260803178E
:1002A0008F008D0A03198F0A031303290317031301
:1002B000080003081F398300A101A00183161F1441
:1002C0009F141F159F1107309C0083130030880076
:1002D000831287280130A800A900C5200430031725
:1002E0008D0000308F00031303210130A80002307D
:1002F000A900C5200A3003178D0000308F000313BA
:1003000003211430A400FA30A9002020A40B832973
:10031000113003178D0000308F0003130321A20159
:100320002208103C031CB0292208A8000130A900B3
:10033000C520123003178D0000308F0003130321F6
:100340000230A400FA30A9002020A40BA229183002
:1003500003178D0000308F0003130321A20A902998
:100360001030A3002308003C0318D2292308A8005A
:100370000130A900C520193003178D0000308F000F
:10038000031303210230A400FA30A9002020A40B9B
:10039000C4291F3003178D0000308F000313032181
:0803A000A303B2296A296300DE
:02400E00723FFF
:00000001FF
;PIC16F877A
;CRC=2233  CREATED="22-Jul.-25 11:33"
